:020000040800F2
:10000000000002207D1B0008CD1B0008CD1B00084E
:10001000CD1B0008CD1B0008CD1B00080000000010
:10002000000000000000000000000000CD1B0008E0
:10003000CD1B000800000000CD1B0008CD1B0008F0
:10004000CD1B0008CD1B0008CD1B0008CD1B0008F0
:10005000CD1B0008CD1B0008CD1B0008CD1B0008E0
:10006000CD1B0008CD1B0008CD1B0008CD1B0008D0
:10007000CD1B0008CD1B0008CD1B0008CD1B0008C0
:10008000CD1B000871190008CD1B0008CD1B00080E
:10009000CD1B0008CD1B0008CD1B0008CD1B0008A0
:1000A000CD1B0008CD1B0008CD1B0008CD1B000890
:1000B0005D1B0008CD1B0008CD1B0008CD1B0008F0
:1000C000CD1B0008CD1B0008CD1B0008CD1B000870
:1000D000CD1B0008CD1B0008CD1B0008CD1B000860
:1000E000CD1B0008CD1B0008CD1B0008CD1B000850
:1000F000CD1B0008CD1B0008CD1B0008CD1B000840
:10010000CD1B0008CD1B0008CD1B0008CD1B00082F
:10011000CD1B0008CD1B0008CD1B0008CD1B00081F
:10012000CD1B0008CD1B0008CD1B0008CD1B00080F
:10013000CD1B00080000000000000000CD1B0008DF
:10014000CD1B0008CD1B0008CD1B0008CD1B0008EF
:10015000CD1B0008CD1B0008CD1B0008CD1B0008DF
:10016000CD1B0008CD1B0008CD1B0008CD1B0008CF
:10017000CD1B0008CD1B0008CD1B000800000000AF
:1001800000000000CD1B000800000000000000007F
:10019000CD1B00080000000000000000CD1B00087F
:1001A000000000000000000000000000CD1B00085F
:1001B000CD1B0008CD1B0008CD1B0008CD1B00087F
:0401C000CD1B00084B
:100200000348044B834202D0034B03B118477047A5
:100210006C0000206C000020000000000548064B28
:100220001B1AD90F01EBA301491002D0034B03B1F4
:10023000184770476C0000206C0000200000000090
:1002400010B5064C237843B9FFF7DAFF044B13B11E
:100250000448AFF300800123237010BD6C00002020
:1002600000000000D01B000808B5044B1BB1044976
:100270000448AFF30080BDE80840CFE7000000006D
:1002800070000020D01B000870B50D4E0D4D761B80
:10029000B61006D0002455F8043B01349847A64216
:1002A000F9D1094E094D761B01F092FCB61006D02B
:1002B000002455F8043B01349847A642F9D170BD9B
:1002C000E01C0008E01C0008E41C0008E01C00081A
:1002D000830730B548D0541E002A3FD0CAB2034627
:1002E00001E0013C3AD303F8012B9D07F9D1032C1F
:1002F0002DD9CDB245EA05250F2C45EA054536D95D
:10030000A4F1100222F00F0C03F1200EE6444FEA94
:10031000121C03F1100242E9045542E90255103261
:100320007245F8D10CF1010214F00C0F03EB02122C
:1003300004F00F0C13D0ACF1040323F003030433D7
:10034000134442F8045B9342FBD10CF003042CB13C
:10035000CAB21C4403F8012B9C42FBD130BD644659
:100360001346002CF4D1F9E703461446BFE71A46BA
:10037000A446E0E72DE9F0410E460746002833D0B9
:1003800083697BB384682F4B9C4237D02E4B9C42B1
:100390003FD02E4B9C4208BFFC68A3891B0731D578
:1003A00023697BB33578B0463DB934E023685A1CE5
:1003B00022601D7018F8015F6DB3A368013B002B2C
:1003C000A360F3DAA669B34229462246384601DB28
:1003D0000A2DEBD100F0C2F80130EBD14FF0FF3025
:1003E000BDE8F08100F090FBBB69BC68002BCAD16E
:1003F000384600F089FB134B9C42C7D17C68A38927
:100400001B07CDD42146384600F00CF90028C9D08E
:10041000E4E7BC68C1E7A368013B002BA36009DAED
:1004200022460A21384600F099F80130D6D00A2039
:10043000BDE8F08123680A22591C21601A70104619
:10044000BDE8F0812C1C00080C1C0008EC1B000807
:10045000024B01461868FFF78DBF00BF0000002067
:10046000000000000000000000000000000000008C
:10047000000000000000000000000000000000007C
:1004800090F800F06DE9024520F007016FF0000CD4
:1004900010F0070491F820F040F049804FF000047C
:1004A0006FF00700D1E9002391F840F000F1080057
:1004B00082FA4CF2A4FA8CF283FA4CF3A2FA8CF38F
:1004C0004BBBD1E9022382FA4CF200F10800A4FAF6
:1004D0008CF283FA4CF3A2FA8CF3E3B9D1E904234A
:1004E00082FA4CF200F10800A4FA8CF283FA4CF381
:1004F000A2FA8CF37BB9D1E9062301F1200182FA3B
:100500004CF200F10800A4FA8CF283FA4CF3A2FA40
:100510008CF3002BC6D0002A04BF04301A4612BA4E
:10052000B2FA82F2FDE8024500EBD2007047D1E951
:10053000002304F00305C4F100004FEAC50514F0E0
:10054000040F91F840F00CFA05F562EA05021CBFB1
:1005500063EA050362464FF00004A9E7F8B50D46CB
:100560001446064608B1836943B3254B9C422AD002
:10057000244B9C4229D0244B9C4208BFF468A38999
:10058000A269A2601A0722D5236903B322686169B0
:10059000D31AEDB299422F4629DD0133A168013902
:1005A000A160511C2160157062699A4216D0A3891E
:1005B000DB0701D50A2D11D03846F8BD00F0A4FAAA
:1005C0000F4B9C42D4D17468D9E7B468D7E7214671
:1005D000304600F027F838B92369D7E7214630467E
:1005E00000F02CF90028E7D04FF0FF37E4E7214670
:1005F000304600F023F90028F6D122680123CDE728
:100600002C1C00080C1C0008EC1B000810B4044C47
:1006100003460A4620685DF8044B1946FFF79EBF63
:10062000000000203C4B70B51D6806460C460DB11D
:10063000AB69E3B1394B9C421FD0394B9C424DD042
:10064000384B9C4208BFEC68B4F90C3018079AB2DA
:1006500019D5216911B312F001002FD00020A0603C
:1006600060694042A06100292ED0002070BD28465C
:1006700000F04AFA294B9C42DFD16C68B4F90C3087
:1006800018079AB2E5D4D1063ED5520728D421697D
:1006900043F00803A3819AB20029DCD102F4207050
:1006A000B0F5007FD7D02146304600F091FAB4F97A
:1006B0000C3021699AB212F00100CFD1950758BFD2
:1006C0006069A0600029D0D1120658BF0846CDD578
:1006D00043F04003A3814FF0FF3070BDAC68B3E737
:1006E000616B51B104F14402914204D0304600F0F4
:1006F000FDFAB4F90C300022626321690022C4E9DA
:10070000001223F02403C3E7092243F040033260C0
:100710004FF0FF30A38170BD000000202C1C0008AA
:100720000C1C0008EC1B00088B891A072DE9F0410E
:100730000C4680463FD44A68002A58DDE66A002EFF
:1007400052D00022D8F80050C8F8002013F480528C
:1007500051D10123216A4046B047431C5ED0A38992
:10076000E66A5F0705D56368C01A636B0BB1236C3B
:10077000C01A216A024600234046B047411C3CD1C2
:10078000D8F80030002B38D01D2B01D0162B4DD1BE
:1007900023690022C4E90032616BC8F8005019B324
:1007A00004F14403994202D0404600F09FFA002031
:1007B0006063BDE8F0810E69B6B10D680E609A07FE
:1007C0000CBF4B690023AD1B8B600BE02B46324600
:1007D000216AA76A4046B847B0F1000CA5EB0C05AA
:1007E000664413DD002DF1DC0020BDE8F0810A6CC9
:1007F000002AA3DCF8E7606DB3E700236360236998
:100800002360A389DB04C7D56065C5E7A38943F0EE
:1008100040034FF0FF30A381BDE8F081D8F80030ED
:10082000002B9CD01D2B06D0162B04D0A38943F09F
:100830004003A381D9E7C8F80050D5E738B50B6964
:10084000BBB10D46044608B18369B3B10D4B9D425F
:1008500011D00D4B9D4213D00C4B9D4208BFE56853
:10086000B5F90C302BB129462046BDE83840FFF7DA
:100870005BBF002038BD6568F2E700F045F9E5E7A9
:10088000A568EDE72C1C00080C1C0008EC1B0008F8
:1008900038B540B303690446E3B1174B1D680DB189
:1008A000AB69CBB1154B9C420FD0154B9C4221D06C
:1008B000144B9C4208BFEC68B4F90C3053B121468C
:1008C0002846BDE83840FFF72FBF6C68B4F90C30FC
:1008D000002BF4D1002038BD284600F015F9074B55
:1008E0009C42E2D1F1E7084B08491868BDE838405E
:1008F00000F04AB9AC68DFE7000000202C1C0008BB
:100900000C1C0008EC1B0008E81B00083D08000850
:1009100000207047014900F037B900BF3D080008CA
:100920000020704770B568224D1E02FB05F50E468B
:1009300005F1740100F03CFA044640B100210C308E
:10094000C4E90016A06005F16802FFF7C1FC20466B
:1009500070BD00BF274B2DE9F0411E68B369074603
:1009600053B348364FF00408D6E90134013B04D5AF
:100970001EE05A1C04F168041AD0B4F90C50013B73
:10098000002DF6D11C4B6566C4E90055C4E902533D
:10099000C4E90455A5610822294604F15C00FFF76B
:1009A00097FCC4E90D55C4E912552046BDE8F08115
:1009B00035682DB12E46D7E7304600F01FF8D0E756
:1009C0004FF4D671384600F0F3F9044668B105607B
:1009D000C0F804800C302946A06025464FF4D07240
:1009E000FFF776FC34602E46BEE70C2330603B6098
:1009F000DBE700BFE81B00080100FFFF2DE9F84F0F
:100A0000344B35491A68816290424FF00003C0E9C7
:100A10001233036504BF012383610546FFF79AFF84
:100A200068602846FFF796FFA8602846FFF792FF08
:100A30006F68E86000240423C7E9024308222146C6
:100A4000C7E90044C7E904447C66BC6107F15C0067
:100A5000FFF73EFCDFF88CB0AE68DFF88CA0DFF863
:100A60008C90DFF88C801D4BC7F828A0C7E9087B65
:100A7000C7F82C90C7F830800822F360C6E900441C
:100A8000C6E904447466B460B461214606F15C00B2
:100A9000FFF71EFCC6E9086BC6E90AA9C6F8308054
:100AA000EE680F4BF360C6E90044C6E9044474667F
:100AB000B460B4612146082206F15C00FFF708FC2F
:100AC0000123C6E9086BC6E90B98C6F828A0AB61FC
:100AD000BDE8F88FE81B00081509000809000100AF
:100AE00012000200890E0008B10E0008F10E000885
:100AF000110F0008024B0349186800F045B800BF09
:100B0000E81B00083D080008836903B976E77047D1
:100B1000704700BF704700BF704700BF704700BFFD
:100B2000024B0349186800F00FB800BF0000002016
:100B300011090008024B0349186800F005B800BF0E
:100B400000000020210900082DE9F041884600F14D
:100B500048070026D7E90154013D0FD4A389012B92
:100B600005F1FF3506D9B4F90E300133204601D026
:100B7000C04706436B1C04F16804EFD13F68002FA7
:100B8000E8D13046BDE8F0812DE9F84307468846B4
:100B900000F148064FF00009D6E90154013D11D497
:100BA000A389012B05F1FF3508D9B4F90E300133C3
:100BB000214603D03846C04749EA00096B1C04F1BE
:100BC0006804EDD13668002EE6D14846BDE8F883CA
:100BD000F0B58B890C46990797B007D504F1470308
:100BE0000122C4E90432236017B0F0BDB4F90E103D
:100BF000002905462DDB6A4600F0B6F9002827DB00
:100C0000019E06F470464FF48067A6F50056B6FACA
:100C100086F639462846760900F0CAF830B3A3892B
:100C20001A4AAA6243F08003C4E90407A381206042
:100C3000002ED9D0B4F90E10284600F0ABF90028E8
:100C4000D2D0A38923F0030343F00103A381CBE7B0
:100C5000A38913F0800F14BF40274FF480673946F3
:100C60002846002600F0A4F80028D8D1B4F90C30AA
:100C70009A05B9D423F0030304F1470243F00203B9
:100C80000121C4E90421A3812260ADE71509000810
:100C900070B50C46B1F90E10002996B016461D46E7
:100CA00013DB6A4600F060F900280EDB019901F4BD
:100CB0007041A1F50051B1FA81F14FF48063490907
:100CC00000202960336016B070BDB4F90C300022EA
:100CD0001B062A6004D540230020336016B070BD87
:100CE0004FF480630020336016B070BD002958D0E7
:100CF00030B551F8043C83B0002BA1F10404B8BF17
:100D0000E418019000F06EF9284A0198136833B195
:100D1000A3420DD9216804EB010C63452FD0636019
:100D2000146003B0BDE8304000F05EB9A34210D8B3
:100D30001A465B68002BF9D1116802EB010C64457F
:100D400019D02FD36360546003B0BDE8304000F089
:100D50004BB9116802EB010CA44516D022D82168CA
:100D600004EB010C6345EDD11D685B682944C4E9BF
:100D700000135460D5E7236819441160D1E71D685A
:100D80005B682944C4E90013CAE724682144541865
:100D9000A3421160C5D1D3E900432144C2E9001345
:100DA000BFE770470C230360BBE700BF880000204B
:100DB000F8B5CD1C25F0030508350C2D38BF0C25E2
:100DC000002D064623DBA94221D8254F00F00AF961
:100DD0003A6822B3144603E063682246FBB11C461E
:100DE00023685B1BF8D40B2B15D8636894420CBFA7
:100DF0003B605360304600F0F7F804F10B00231D10
:100E000020F00700C21A01D01B1AA350F8BD0C2312
:100E100033600020F8BD23601C442560EAE7796850
:100E2000C9B12946304600F01DF8431C0CD0C41C43
:100E300024F00304A04205D0211A304600F012F835
:100E4000013001D02560D5E70C233046336000F037
:100E5000CBF80020F8BD304600F004F87860E0E7F9
:100E60008800002038B5074D0022044608462A6055
:100E700000F0FAF8431C00D038BD2B68002BFBD0E3
:100E8000236038BD9000002010B50C46B1F90E105B
:100E900000F0ACF8002803DB636D0344636510BD0C
:100EA000A38923F48053A38110BD00BF00207047A5
:100EB0002DE9F0410C46B1F90C101F46CB05054653
:100EC00016460BD421F48051A1813B46B4F90E1093
:100ED00032462846BDE8F04100F01EB8B4F90E10C5
:100EE0000223002200F068F8B4F90C10EAE700BF12
:100EF00010B50C46B1F90E1000F05EF8A389421C43
:100F00000EBF23F4805343F480536065A38110BD6A
:100F1000B1F90E1000F016B838B50C46084D8446ED
:100F2000114620461A4600232B60644600F058FD07
:100F3000431C00D038BD2B68002BFBD0236038BD8C
:100F40009000002038B5074D0022044608462A606C
:100F500000F062F8431C00D038BD2B68002BFBD09A
:100F6000236038BD9000002070B50C46084D034644
:100F70000026204611461C462E6000F055F8431C02
:100F800000D070BD2B68002BFBD0236070BD00BF6C
:100F90009000002038B5074D0022044608462A601C
:100FA00000F04AF8431C00D038BD2B68002BFBD062
:100FB000236038BD9000002038B50C46084D8446AB
:100FC000114620461A4600232B60644600F03CF888
:100FD000431C00D038BD2B68002BFBD0236038BDEC
:100FE00090000020704700BF704700BF38B50C4626
:100FF000084D8446114620461A4600232B6064465D
:1010000000F02AF8431C00D038BD2B68002BFBD021
:10101000236038BD90000020024B58221A604FF028
:10102000FF30704790000020024B58221A604FF0AA
:10103000FF30704790000020024B58221A600020B9
:10104000704700BF90000020024B58221A604FF0FA
:10105000FF30704790000020024B58221A604FF07A
:10106000FF30704790000020044A05491368002BA8
:1010700008BF0B46184410601846704794000020C3
:10108000A0000020034AD2F8883043F47003C2F86D
:101090008830704700ED00E0164A936803F00C03B7
:1010A000042B0CD0082B0CD0134B124A1348926817
:1010B0001349C2F30312825CD3400B607047114B9B
:1010C000F3E75368516813F4800F536814BF0D4A57
:1010D000094AC3F3881301F03F01B2FBF1F202FBAE
:1010E00003F3044A5268C2F3014201325200B3FBD7
:1010F000F2F3DAE7003802400024F4004C1C000848
:101100006400002000127A00214B9A6842F4A05239
:1011100010B49A609A6842F400429A601A6822F405
:10112000A02242F480321A601A689203FCD55A68F1
:10113000184C42F480025A605A6822F03F025A600A
:101140005A6842F004025A605A6822F4FF4222F0C0
:1011500040025A605A6842EA8010586059680C4A46
:1011600021F440315960216841F4827141F001015C
:101170002160196841F08071196013689B01FCD5EA
:1011800093685DF8044B43F002039360FFF784BF5C
:1011900000380240003C02402049214A0B6C43F0D9
:1011A000805310B40B64136843F4807313601368A6
:1011B000D905FCD5194A1B4B916841F40021916077
:1011C000116F41F480311167116F21F48031116783
:1011D000116F41F440711167116FCA24532041F41B
:1011E000004111675C625862DA6842F08002DA609E
:1011F000DA685206FCD541F63F721A611A690A494B
:101200005DF8044B42F4F8021A611960DA680021B3
:1012100022F08002DA605962704700BF0038024055
:10122000007000400028004008101800114B1A6898
:10123000C2F30152303202701A68C2F303423A21FB
:101240003032427081701A68C2F302323032C2709A
:101250001A684171C2F30322303202711A68C2F374
:101260000212303282711B6803F00F033033C371F6
:10127000704700BF002800400379413B032B69D829
:10128000DFE803F0615A53023349344A0B6B43F0F1
:1012900008030B632DE9F043D0F8057002600023CA
:1012A00003260F2503F0070127FA03F44FEA430E44
:1012B0008900E40706FA0EF805FA01F92ED514683C
:1012C00024EA080414609468072BD4BF4FF0000C84
:1012D0004FF0010C02EB8C0C24EA08049460DCF85B
:1012E000204024EA0904CCF82040847AD2F8008017
:1012F00004FA0EF444EA08041460447AD2F8088030
:1013000004FA0EF444EA08049460D0F80BE0DCF828
:1013100020400EFA01F12143CCF820100133102BAC
:10132000C0D100235361BDE8F0830B490C4A0B6B1D
:1013300043F004030B63ADE707490A4A0B6B43F024
:1013400002030B63A6E70449074A0B6B43F0010352
:101350000B639FE7704700BF00380240000C02405B
:1013600000080240000402400000024030B443681C
:10137000013B072B41D8DFE803F0424C57616B7506
:101380007F044249424B4A6C42F002024A644FF4E5
:1013900080540121802203601A6002691AB11A6820
:1013A00042F004021A6082689A62C268DA6200221D
:1013B0005A62427E90F818C01D68D20042EA0C12B0
:1013C0002A431A6090F81AC0C27E9D6842EA0C1245
:1013D0002A439A60426942B1DA682E4842F4807228
:1013E00042F00102DA6040F821405A6942F00102FD
:1013F0005A611A6842F001021A6030BC70472349F2
:10140000254B4A6C42F001024A644FF000740021FF
:10141000C0E71E4A136C43F0010313644FF080547D
:1014200000214FF08043B5E718491C4B0A6C42F08D
:1014300002020A644FF000540021ABE71349184B35
:101440000A6C42F004020A644FF080440021A1E7D4
:101450000E49144B0A6C42F008020A644FF48024CF
:10146000012197E70949104B0A6C42F010020A6407
:101470004FF4800401218DE704490C4B0A6C42F0C3
:1014800020020A644FF40004012183E7003802407F
:101490000004014000E100E00000014000040040C1
:1014A00000080040000C0040001000400014004004
:1014B000D0F804C0BCF1010F30B56AD0BCF1020F06
:1014C00066D1684A136B43F4800313638268072A6A
:1014D0005ED8DFE802F0A5A0B7ABB1C0C3BD624BD8
:1014E0004FF480544FF0000C002203601A601A6819
:1014F000002AFCD11968C56841EA45611960016993
:10150000D9604169196181699960C169596090F830
:10151000211090F82250490341EAC5211D68294352
:101520001960196841F440311960D0F82310D0F8DF
:101530002750890241EA45211D68294319605A61F3
:101540001A6890F8331042EA81121A601A68D0F8CB
:101550002F1042EA01221A601A68D0F82B1042EAD2
:1015600081421A601D68816BD0F834E04FEA0E1298
:1015700042EAC1022A4351EA0E011A601CBF3B4AEB
:1015800042F82C40C26B1AB11A6842F001021A608C
:1015900030BD344A136B43F4001313638268072A87
:1015A000F6D801A353F822F0C9150008DF1400088B
:1015B000F3150008FF1500080B160008DB150008DE
:1015C000E7150008D3150008294B94464FF4006432
:1015D0008AE7284B4FF4004486E7274B4FF48034CA
:1015E0004FF0000C80E7254B4FF400344FF0000C17
:1015F0007AE7234B4FF400544FF0000C74E7214B73
:101600004FF480444FF0000C6EE71F4B4FF4004442
:101610004FF0000C68E71D4B94464FF0007463E7F1
:101620001B4B4FF080744FF0010C5DE7194B4FF0EE
:1016300000644FF0010C57E7174B4FF080544FF008
:10164000010C51E7154B4FF080644FF0010C4BE754
:10165000134B402448E7134B102445E7124B20243A
:1016600042E700BF003802402860024000E100E08D
:1016700010600240B860024088600240A0600240F2
:10168000406002405860024070600240286402409E
:10169000106402405864024070640240406402409A
:1016A000B864024088640240A064024010B44368F9
:1016B000013B052B43D8DFE803F06203A37E90458E
:1016C0007C490B6C43F400330B648369002244248F
:1016D0004021027044708270C170002B00F0B8800D
:1016E000754B4FF0260C5A6942F080025A614269EC
:1016F0001AB15A6942F040025A61704A8168126810
:101700004901D200B2FBF1F29A60C1680069DC685D
:10171000C20142EA411222430143DA6009D04FEA92
:101720005C1067490CF0170C012202FA0CF241F828
:1017300020200C22DA60DA6842F40052DA605DF8A8
:10174000044B70475B4A536C43F020035364836936
:101750004FF0000C14240121402280F800C0447096
:101760008170C270002B7ED1436923B1554A536901
:1017700043F040035361534B4FF0470C7CE04D4A1C
:10178000536C102423435364836944704FF0000C5E
:101790000121402280F800C08170C270002B74D1FA
:1017A000436923B1484A536943F040035361464BB0
:1017B0004FF0250C60E03F490B6C43F400230B64B1
:1017C000836900224C244021027044708270C170F1
:1017D00043B33E4B4FF0340C85E736490B6C43F472
:1017E00080130B64836900225024402102704470EE
:1017F0008270C170002B4CD0354B4FF0350C72E726
:101800002C490B6C43F480230B6483690022482429
:101810004021027044708270C17073B12D4B4FF043
:10182000270C60E7436923B1284A536943F040031A
:101830005361264B4FF0340C5FE7436923B1254ACF
:10184000536943F040035361224B4FF0270C54E798
:10185000436923B1184A536943F040035361164B5F
:101860004FF0260C49E7174B4FF0470C5A6942F0EE
:1018700080025A614269BAB9104A816812688901C6
:10188000D200B2FBF1F29A603FE70F4B4FF0250C0C
:10189000ECE7436923B10E4A536943F040035361B7
:1018A0000B4B4FF0350C28E75A6942F040025A6161
:1018B000E2E700BF0038024000440040640000201E
:1018C00000E100E00014014000100140004C004025
:1018D0000050004000480040704700BF70B59CB009
:1018E0000223002406938DF80E30072301254022A1
:1018F0002146042607908DF80F300CA84123ADF83F
:101900000C408DF80830CDE9084405940B950194FE
:101910008DF80A408DF80B408DF80C408DF8104082
:101920008DF811408DF812400A948DF80960FEF789
:10193000CFFC0E4B12930DEB060006230E930F9671
:101940000D958DF853508DF854408DF855408DF815
:1019500056408DF863501995FFF78EFC0CA8FFF7E1
:10196000A7FD05A8FFF7A2FE1CB070BD044400400F
:10197000054B5A68920205D5044A4FF40010012124
:10198000D8601160704700BF00600240680000200E
:1019900010B5104A1368002BFCD00F4C00231360C5
:1019A000D4F8A03023F00103C4F8A030D4F8A0305C
:1019B000DB07FBD4094BC4F8AC00C4F8A830FEF731
:1019C0005FFDC4F8A400D4F8A03043F00103C4F8CC
:1019D000A03010BD680000200060024004440040B8
:1019E00010B40A4C10462368002BFCD000280ADDF6
:1019F000074A01EB000C11F8014B13681B06FCD5DC
:101A000061455460F7D15DF8044B704768000020D1
:101A100000440040024A536943F020035361704779
:101A200000000240024A536923F0200353617047CB
:101A30000000024000B585B0002342F241010122BE
:101A40006846CDE901330093CDF80B308DF80A20BC
:101A5000ADF80410FFF710FC034A536923F020038C
:101A6000536105B05DF804FB000002402DE9F04130
:101A7000B42090B0FFF748FBFFF78EFBFFF7DAFFCB
:101A80004FF4E130FFF72AFF294C07262046FEF7E6
:101A9000DFFC013EFAD12748274C284DDFF8B880FB
:101AA000FFF776FF2648FFF773FF2648FFF770FF22
:101AB0002548FFF76DFF012342F227320227CDE9C7
:101AC000073602A8069342F20F7304920593039718
:101AD0000296FFF74BFC1D48FFF75AFF09A8CDE916
:101AE0000967CDE90B66CDE90D660F96FFF7F4FEA9
:101AF0001748184FFFF74CFF2368002BFCD02B68CA
:101B0000DB0712D5FFF786FF2B68684601332B6091
:101B1000FFF78CFB4046FFF73BFF6846FFF738FFB7
:101B20003846FFF735FF2660E6E7FFF77BFFEBE778
:101B30005C1C0008601C00089C000020980000202D
:101B4000741C0008881C00089C1C0008B01C0008BD
:101B5000C41C0008DC1C0008D81C00084FF080439F
:101B60001A69D20706D51A69034922F00102012039
:101B70001A610860704700BF9C000020DFF834D075
:101B80000D480E490E4A002302E0D458C4500433D5
:101B9000C4188C42F9D30B4A0B4C002301E01360AC
:101BA0000432A242FBD3FFF76DFAFEF76DFBFFF79D
:101BB0005DFF704700000220000000206C00002044
:101BC000E81C00086C000020A0000020FEE70000D8
:101BD000F8B500BFF8BC08BC9E467047F8B500BF1A
:081BE000F8BC08BC9E467047EA
:101BE80004000020000000000000000000000000C9
:101BF80000000000000000000000000000000000DD
:101C080000000000000000000000000000000000CC
:101C180000000000000000000000000000000000BC
:101C280000000000000000000000000000000000AC
:101C3800000000000000000000000000000000009C
:101C48000000000000000000000000000102030482
:101C5800060708090D0000004143535520202020A5
:101C6800203A204F4B2E0D0A00000000525443200A
:101C780020202020203A204F4B2E0D0A0000000083
:101C88004C45442020202020203A204F4B2E0D0A7E
:101C980000000000434F4D504F525420203A204F2F
:101CA8004B2E0D0A0000000054494D322020202000
:101CB800203A204F4B2E0D0A0000000053504931A6
:101CC80020202020203A204F4B2E0D0A0000000033
:081CD8001B6300000D0A00006F
:041CE000690200088D
:041CE40041020008B1
:101CE80004000020000000002C1C00080C1C000848
:101CF800EC1B0008000000000000000000000000CD
:101D080000000000000000000000000000000000CB
:101D180000000000000000000000000000000000BB
:101D280000000000000000000000000000000000AB
:101D3800000000000000000000000000000000009B
:0C1D4800000000000024F4000100000076
:0400000508001B7D57
:00000001FF
